{
  "abi": [
    {
      "inputs": [],
      "name": "ACA",
      "outputs": [
        {
          "internalType": "address",
          "name": "",
          "type": "address"
        }
      ],
      "stateMutability": "view",
      "type": "function"
    },
    {
      "inputs": [],
      "name": "AUSD",
      "outputs": [
        {
          "internalType": "address",
          "name": "",
          "type": "address"
        }
      ],
      "stateMutability": "view",
      "type": "function"
    },
    {
      "inputs": [],
      "name": "BNC",
      "outputs": [
        {
          "internalType": "address",
          "name": "",
          "type": "address"
        }
      ],
      "stateMutability": "view",
      "type": "function"
    },
    {
      "inputs": [],
      "name": "DEX",
      "outputs": [
        {
          "internalType": "address",
          "name": "",
          "type": "address"
        }
      ],
      "stateMutability": "view",
      "type": "function"
    },
    {
      "inputs": [],
      "name": "DOT",
      "outputs": [
        {
          "internalType": "address",
          "name": "",
          "type": "address"
        }
      ],
      "stateMutability": "view",
      "type": "function"
    },
    {
      "inputs": [],
      "name": "EVM",
      "outputs": [
        {
          "internalType": "address",
          "name": "",
          "type": "address"
        }
      ],
      "stateMutability": "view",
      "type": "function"
    },
    {
      "inputs": [],
      "name": "EVM_ACCOUNTS",
      "outputs": [
        {
          "internalType": "address",
          "name": "",
          "type": "address"
        }
      ],
      "stateMutability": "view",
      "type": "function"
    },
    {
      "inputs": [],
      "name": "HOMA",
      "outputs": [
        {
          "internalType": "address",
          "name": "",
          "type": "address"
        }
      ],
      "stateMutability": "view",
      "type": "function"
    },
    {
      "inputs": [],
      "name": "HONZON",
      "outputs": [
        {
          "internalType": "address",
          "name": "",
          "type": "address"
        }
      ],
      "stateMutability": "view",
      "type": "function"
    },
    {
      "inputs": [],
      "name": "INCENTIVES",
      "outputs": [
        {
          "internalType": "address",
          "name": "",
          "type": "address"
        }
      ],
      "stateMutability": "view",
      "type": "function"
    },
    {
      "inputs": [],
      "name": "KBTC",
      "outputs": [
        {
          "internalType": "address",
          "name": "",
          "type": "address"
        }
      ],
      "stateMutability": "view",
      "type": "function"
    },
    {
      "inputs": [],
      "name": "KINT",
      "outputs": [
        {
          "internalType": "address",
          "name": "",
          "type": "address"
        }
      ],
      "stateMutability": "view",
      "type": "function"
    },
    {
      "inputs": [],
      "name": "KSM",
      "outputs": [
        {
          "internalType": "address",
          "name": "",
          "type": "address"
        }
      ],
      "stateMutability": "view",
      "type": "function"
    },
    {
      "inputs": [],
      "name": "LDOT",
      "outputs": [
        {
          "internalType": "address",
          "name": "",
          "type": "address"
        }
      ],
      "stateMutability": "view",
      "type": "function"
    },
    {
      "inputs": [],
      "name": "LKSM",
      "outputs": [
        {
          "internalType": "address",
          "name": "",
          "type": "address"
        }
      ],
      "stateMutability": "view",
      "type": "function"
    },
    {
      "inputs": [],
      "name": "LP_ACA_AUSD",
      "outputs": [
        {
          "internalType": "address",
          "name": "",
          "type": "address"
        }
      ],
      "stateMutability": "view",
      "type": "function"
    },
    {
      "inputs": [],
      "name": "LP_DOT_AUSD",
      "outputs": [
        {
          "internalType": "address",
          "name": "",
          "type": "address"
        }
      ],
      "stateMutability": "view",
      "type": "function"
    },
    {
      "inputs": [],
      "name": "LP_KAR_KUSD",
      "outputs": [
        {
          "internalType": "address",
          "name": "",
          "type": "address"
        }
      ],
      "stateMutability": "view",
      "type": "function"
    },
    {
      "inputs": [],
      "name": "ORACLE",
      "outputs": [
        {
          "internalType": "address",
          "name": "",
          "type": "address"
        }
      ],
      "stateMutability": "view",
      "type": "function"
    },
    {
      "inputs": [],
      "name": "PHA",
      "outputs": [
        {
          "internalType": "address",
          "name": "",
          "type": "address"
        }
      ],
      "stateMutability": "view",
      "type": "function"
    },
    {
      "inputs": [],
      "name": "RENBTC",
      "outputs": [
        {
          "internalType": "address",
          "name": "",
          "type": "address"
        }
      ],
      "stateMutability": "view",
      "type": "function"
    },
    {
      "inputs": [],
      "name": "SA_3USD",
      "outputs": [
        {
          "internalType": "address",
          "name": "",
          "type": "address"
        }
      ],
      "stateMutability": "view",
      "type": "function"
    },
    {
      "inputs": [],
      "name": "SA_DOT",
      "outputs": [
        {
          "internalType": "address",
          "name": "",
          "type": "address"
        }
      ],
      "stateMutability": "view",
      "type": "function"
    },
    {
      "inputs": [],
      "name": "SA_KSM",
      "outputs": [
        {
          "internalType": "address",
          "name": "",
          "type": "address"
        }
      ],
      "stateMutability": "view",
      "type": "function"
    },
    {
      "inputs": [],
      "name": "SCHEDULE",
      "outputs": [
        {
          "internalType": "address",
          "name": "",
          "type": "address"
        }
      ],
      "stateMutability": "view",
      "type": "function"
    },
    {
      "inputs": [],
      "name": "STABLE_ASSET",
      "outputs": [
        {
          "internalType": "address",
          "name": "",
          "type": "address"
        }
      ],
      "stateMutability": "view",
      "type": "function"
    },
    {
      "inputs": [],
      "name": "TAI",
      "outputs": [
        {
          "internalType": "address",
          "name": "",
          "type": "address"
        }
      ],
      "stateMutability": "view",
      "type": "function"
    },
    {
      "inputs": [],
      "name": "TAP",
      "outputs": [
        {
          "internalType": "address",
          "name": "",
          "type": "address"
        }
      ],
      "stateMutability": "view",
      "type": "function"
    },
    {
      "inputs": [],
      "name": "VSKSM",
      "outputs": [
        {
          "internalType": "address",
          "name": "",
          "type": "address"
        }
      ],
      "stateMutability": "view",
      "type": "function"
    },
    {
      "inputs": [
        {
          "internalType": "address",
          "name": "token",
          "type": "address"
        }
      ],
      "name": "getPrice",
      "outputs": [
        {
          "internalType": "uint256",
          "name": "",
          "type": "uint256"
        }
      ],
      "stateMutability": "view",
      "type": "function"
    }
  ],
  "evm": {
    "bytecode": {
      "linkReferences": {},
      "object": "60806040526108016000806101000a81548173ffffffffffffffffffffffffffffffffffffffff021916908373ffffffffffffffffffffffffffffffffffffffff16021790555034801561005257600080fd5b506108fe806100626000396000f3fe608060405234801561001057600080fd5b50600436106101da5760003560e01c80636cd83f1811610104578063c30054c0116100a2578063ef1280a211610071578063ef1280a2146104fd578063f29588c71461051b578063fb93614a14610539578063fd45892114610557576101da565b8063c30054c014610485578063d54dc1ab146104a3578063d7f269fe146104c1578063d9dc7fcd146104df576101da565b806380bd60e8116100de57806380bd60e81461040d57806397ae36381461042b578063a1b5622614610449578063a5770a5414610467576101da565b80636cd83f18146103b3578063783dc03d146103d157806380935aa9146103ef576101da565b80632fd7d1fd1161017c5780634665f3ee1161014b5780634665f3ee1461033b5780634a7321ae146103595780635fd7a859146103775780636022c7ab14610395576101da565b80632fd7d1fd146102b157806336e02950146102cf57806338013f02146102ed57806341976e091461030b576101da565b8063131e190a116101b8578063131e190a1461023957806316979a181461025757806319550da4146102755780631f92767514610293576101da565b806301a0e121146101df5780630a3e730b146101fd5780630a4cad6b1461021b575b600080fd5b6101e7610575565b6040516101f49190610828565b60405180910390f35b610205610584565b6040516102129190610828565b60405180910390f35b61022361058a565b6040516102309190610828565b60405180910390f35b610241610599565b60405161024e9190610828565b60405180910390f35b61025f61059f565b60405161026c9190610828565b60405180910390f35b61027d6105a5565b60405161028a9190610828565b60405180910390f35b61029b6105b4565b6040516102a89190610828565b60405180910390f35b6102b96105c3565b6040516102c69190610828565b60405180910390f35b6102d76105d2565b6040516102e49190610828565b60405180910390f35b6102f56105e1565b6040516103029190610828565b60405180910390f35b610325600480360381019061032091906107b8565b6105e7565b6040516103329190610843565b60405180910390f35b61034361069e565b6040516103509190610828565b60405180910390f35b6103616106a4565b60405161036e9190610828565b60405180910390f35b61037f6106b3565b60405161038c9190610828565b60405180910390f35b61039d6106b9565b6040516103aa9190610828565b60405180910390f35b6103bb6106c8565b6040516103c89190610828565b60405180910390f35b6103d96106d7565b6040516103e69190610828565b60405180910390f35b6103f76106e6565b6040516104049190610828565b60405180910390f35b6104156106ec565b6040516104229190610828565b60405180910390f35b6104336106fb565b6040516104409190610828565b60405180910390f35b61045161070a565b60405161045e9190610828565b60405180910390f35b61046f610719565b60405161047c9190610828565b60405180910390f35b61048d610728565b60405161049a9190610828565b60405180910390f35b6104ab610737565b6040516104b89190610828565b60405180910390f35b6104c9610746565b6040516104d69190610828565b60405180910390f35b6104e7610755565b6040516104f49190610828565b60405180910390f35b61050561075b565b6040516105129190610828565b60405180910390f35b610523610761565b6040516105309190610828565b60405180910390f35b610541610770565b60405161054e9190610828565b60405180910390f35b61055f61077f565b60405161056c9190610828565b60405180910390f35b6a030000000000000000000281565b61080781565b6a020000000001000000000281565b61080881565b61080281565b6a01000000000000000000ac81565b6a010000000000000000008381565b6a010000000000000000000181565b6a010000000000000000000281565b61080181565b60008060008054906101000a900473ffffffffffffffffffffffffffffffffffffffff1673ffffffffffffffffffffffffffffffffffffffff166341976e09846040518263ffffffff1660e01b81526004016106439190610828565b60206040518083038186803b15801561065b57600080fd5b505afa15801561066f573d6000803e3d6000fd5b505050506040513d601f19601f8201168201806040525081019061069391906107e1565b905080915050919050565b61080581565b6a010000000000000000000481565b61080681565b6a010000000000000000000381565b6a01000000000000000000aa81565b6a010000000000000000008481565b61080381565b6a020000000080000000008181565b6a030000000000000000000181565b6a010000000000000000000081565b6a020000000000000000000181565b6a010000000000000000008281565b6a01000000000000000000ab81565b6a010000000000000000001481565b61080081565b61080481565b6a01000000000000000000a881565b6a030000000000000000000081565b6a01000000000000000000a981565b60008135905061079d8161089a565b92915050565b6000815190506107b2816108b1565b92915050565b6000602082840312156107ca57600080fd5b60006107d88482850161078e565b91505092915050565b6000602082840312156107f357600080fd5b6000610801848285016107a3565b91505092915050565b6108138161085e565b82525050565b61082281610890565b82525050565b600060208201905061083d600083018461080a565b92915050565b60006020820190506108586000830184610819565b92915050565b600061086982610870565b9050919050565b600073ffffffffffffffffffffffffffffffffffffffff82169050919050565b6000819050919050565b6108a38161085e565b81146108ae57600080fd5b50565b6108ba81610890565b81146108c557600080fd5b5056fea2646970667358221220a88f871fd38e85c23d49eb1c6a13baaba2de42eaa628427fd16445139546244b64736f6c63430008000033",
      "opcodes": "PUSH1 0x80 PUSH1 0x40 MSTORE PUSH2 0x801 PUSH1 0x0 DUP1 PUSH2 0x100 EXP DUP2 SLOAD DUP2 PUSH20 0xFFFFFFFFFFFFFFFFFFFFFFFFFFFFFFFFFFFFFFFF MUL NOT AND SWAP1 DUP4 PUSH20 0xFFFFFFFFFFFFFFFFFFFFFFFFFFFFFFFFFFFFFFFF AND MUL OR SWAP1 SSTORE POP CALLVALUE DUP1 ISZERO PUSH2 0x52 JUMPI PUSH1 0x0 DUP1 REVERT JUMPDEST POP PUSH2 0x8FE DUP1 PUSH2 0x62 PUSH1 0x0 CODECOPY PUSH1 0x0 RETURN INVALID PUSH1 0x80 PUSH1 0x40 MSTORE CALLVALUE DUP1 ISZERO PUSH2 0x10 JUMPI PUSH1 0x0 DUP1 REVERT JUMPDEST POP PUSH1 0x4 CALLDATASIZE LT PUSH2 0x1DA JUMPI PUSH1 0x0 CALLDATALOAD PUSH1 0xE0 SHR DUP1 PUSH4 0x6CD83F18 GT PUSH2 0x104 JUMPI DUP1 PUSH4 0xC30054C0 GT PUSH2 0xA2 JUMPI DUP1 PUSH4 0xEF1280A2 GT PUSH2 0x71 JUMPI DUP1 PUSH4 0xEF1280A2 EQ PUSH2 0x4FD JUMPI DUP1 PUSH4 0xF29588C7 EQ PUSH2 0x51B JUMPI DUP1 PUSH4 0xFB93614A EQ PUSH2 0x539 JUMPI DUP1 PUSH4 0xFD458921 EQ PUSH2 0x557 JUMPI PUSH2 0x1DA JUMP JUMPDEST DUP1 PUSH4 0xC30054C0 EQ PUSH2 0x485 JUMPI DUP1 PUSH4 0xD54DC1AB EQ PUSH2 0x4A3 JUMPI DUP1 PUSH4 0xD7F269FE EQ PUSH2 0x4C1 JUMPI DUP1 PUSH4 0xD9DC7FCD EQ PUSH2 0x4DF JUMPI PUSH2 0x1DA JUMP JUMPDEST DUP1 PUSH4 0x80BD60E8 GT PUSH2 0xDE JUMPI DUP1 PUSH4 0x80BD60E8 EQ PUSH2 0x40D JUMPI DUP1 PUSH4 0x97AE3638 EQ PUSH2 0x42B JUMPI DUP1 PUSH4 0xA1B56226 EQ PUSH2 0x449 JUMPI DUP1 PUSH4 0xA5770A54 EQ PUSH2 0x467 JUMPI PUSH2 0x1DA JUMP JUMPDEST DUP1 PUSH4 0x6CD83F18 EQ PUSH2 0x3B3 JUMPI DUP1 PUSH4 0x783DC03D EQ PUSH2 0x3D1 JUMPI DUP1 PUSH4 0x80935AA9 EQ PUSH2 0x3EF JUMPI PUSH2 0x1DA JUMP JUMPDEST DUP1 PUSH4 0x2FD7D1FD GT PUSH2 0x17C JUMPI DUP1 PUSH4 0x4665F3EE GT PUSH2 0x14B JUMPI DUP1 PUSH4 0x4665F3EE EQ PUSH2 0x33B JUMPI DUP1 PUSH4 0x4A7321AE EQ PUSH2 0x359 JUMPI DUP1 PUSH4 0x5FD7A859 EQ PUSH2 0x377 JUMPI DUP1 PUSH4 0x6022C7AB EQ PUSH2 0x395 JUMPI PUSH2 0x1DA JUMP JUMPDEST DUP1 PUSH4 0x2FD7D1FD EQ PUSH2 0x2B1 JUMPI DUP1 PUSH4 0x36E02950 EQ PUSH2 0x2CF JUMPI DUP1 PUSH4 0x38013F02 EQ PUSH2 0x2ED JUMPI DUP1 PUSH4 0x41976E09 EQ PUSH2 0x30B JUMPI PUSH2 0x1DA JUMP JUMPDEST DUP1 PUSH4 0x131E190A GT PUSH2 0x1B8 JUMPI DUP1 PUSH4 0x131E190A EQ PUSH2 0x239 JUMPI DUP1 PUSH4 0x16979A18 EQ PUSH2 0x257 JUMPI DUP1 PUSH4 0x19550DA4 EQ PUSH2 0x275 JUMPI DUP1 PUSH4 0x1F927675 EQ PUSH2 0x293 JUMPI PUSH2 0x1DA JUMP JUMPDEST DUP1 PUSH4 0x1A0E121 EQ PUSH2 0x1DF JUMPI DUP1 PUSH4 0xA3E730B EQ PUSH2 0x1FD JUMPI DUP1 PUSH4 0xA4CAD6B EQ PUSH2 0x21B JUMPI JUMPDEST PUSH1 0x0 DUP1 REVERT JUMPDEST PUSH2 0x1E7 PUSH2 0x575 JUMP JUMPDEST PUSH1 0x40 MLOAD PUSH2 0x1F4 SWAP2 SWAP1 PUSH2 0x828 JUMP JUMPDEST PUSH1 0x40 MLOAD DUP1 SWAP2 SUB SWAP1 RETURN JUMPDEST PUSH2 0x205 PUSH2 0x584 JUMP JUMPDEST PUSH1 0x40 MLOAD PUSH2 0x212 SWAP2 SWAP1 PUSH2 0x828 JUMP JUMPDEST PUSH1 0x40 MLOAD DUP1 SWAP2 SUB SWAP1 RETURN JUMPDEST PUSH2 0x223 PUSH2 0x58A JUMP JUMPDEST PUSH1 0x40 MLOAD PUSH2 0x230 SWAP2 SWAP1 PUSH2 0x828 JUMP JUMPDEST PUSH1 0x40 MLOAD DUP1 SWAP2 SUB SWAP1 RETURN JUMPDEST PUSH2 0x241 PUSH2 0x599 JUMP JUMPDEST PUSH1 0x40 MLOAD PUSH2 0x24E SWAP2 SWAP1 PUSH2 0x828 JUMP JUMPDEST PUSH1 0x40 MLOAD DUP1 SWAP2 SUB SWAP1 RETURN JUMPDEST PUSH2 0x25F PUSH2 0x59F JUMP JUMPDEST PUSH1 0x40 MLOAD PUSH2 0x26C SWAP2 SWAP1 PUSH2 0x828 JUMP JUMPDEST PUSH1 0x40 MLOAD DUP1 SWAP2 SUB SWAP1 RETURN JUMPDEST PUSH2 0x27D PUSH2 0x5A5 JUMP JUMPDEST PUSH1 0x40 MLOAD PUSH2 0x28A SWAP2 SWAP1 PUSH2 0x828 JUMP JUMPDEST PUSH1 0x40 MLOAD DUP1 SWAP2 SUB SWAP1 RETURN JUMPDEST PUSH2 0x29B PUSH2 0x5B4 JUMP JUMPDEST PUSH1 0x40 MLOAD PUSH2 0x2A8 SWAP2 SWAP1 PUSH2 0x828 JUMP JUMPDEST PUSH1 0x40 MLOAD DUP1 SWAP2 SUB SWAP1 RETURN JUMPDEST PUSH2 0x2B9 PUSH2 0x5C3 JUMP JUMPDEST PUSH1 0x40 MLOAD PUSH2 0x2C6 SWAP2 SWAP1 PUSH2 0x828 JUMP JUMPDEST PUSH1 0x40 MLOAD DUP1 SWAP2 SUB SWAP1 RETURN JUMPDEST PUSH2 0x2D7 PUSH2 0x5D2 JUMP JUMPDEST PUSH1 0x40 MLOAD PUSH2 0x2E4 SWAP2 SWAP1 PUSH2 0x828 JUMP JUMPDEST PUSH1 0x40 MLOAD DUP1 SWAP2 SUB SWAP1 RETURN JUMPDEST PUSH2 0x2F5 PUSH2 0x5E1 JUMP JUMPDEST PUSH1 0x40 MLOAD PUSH2 0x302 SWAP2 SWAP1 PUSH2 0x828 JUMP JUMPDEST PUSH1 0x40 MLOAD DUP1 SWAP2 SUB SWAP1 RETURN JUMPDEST PUSH2 0x325 PUSH1 0x4 DUP1 CALLDATASIZE SUB DUP2 ADD SWAP1 PUSH2 0x320 SWAP2 SWAP1 PUSH2 0x7B8 JUMP JUMPDEST PUSH2 0x5E7 JUMP JUMPDEST PUSH1 0x40 MLOAD PUSH2 0x332 SWAP2 SWAP1 PUSH2 0x843 JUMP JUMPDEST PUSH1 0x40 MLOAD DUP1 SWAP2 SUB SWAP1 RETURN JUMPDEST PUSH2 0x343 PUSH2 0x69E JUMP JUMPDEST PUSH1 0x40 MLOAD PUSH2 0x350 SWAP2 SWAP1 PUSH2 0x828 JUMP JUMPDEST PUSH1 0x40 MLOAD DUP1 SWAP2 SUB SWAP1 RETURN JUMPDEST PUSH2 0x361 PUSH2 0x6A4 JUMP JUMPDEST PUSH1 0x40 MLOAD PUSH2 0x36E SWAP2 SWAP1 PUSH2 0x828 JUMP JUMPDEST PUSH1 0x40 MLOAD DUP1 SWAP2 SUB SWAP1 RETURN JUMPDEST PUSH2 0x37F PUSH2 0x6B3 JUMP JUMPDEST PUSH1 0x40 MLOAD PUSH2 0x38C SWAP2 SWAP1 PUSH2 0x828 JUMP JUMPDEST PUSH1 0x40 MLOAD DUP1 SWAP2 SUB SWAP1 RETURN JUMPDEST PUSH2 0x39D PUSH2 0x6B9 JUMP JUMPDEST PUSH1 0x40 MLOAD PUSH2 0x3AA SWAP2 SWAP1 PUSH2 0x828 JUMP JUMPDEST PUSH1 0x40 MLOAD DUP1 SWAP2 SUB SWAP1 RETURN JUMPDEST PUSH2 0x3BB PUSH2 0x6C8 JUMP JUMPDEST PUSH1 0x40 MLOAD PUSH2 0x3C8 SWAP2 SWAP1 PUSH2 0x828 JUMP JUMPDEST PUSH1 0x40 MLOAD DUP1 SWAP2 SUB SWAP1 RETURN JUMPDEST PUSH2 0x3D9 PUSH2 0x6D7 JUMP JUMPDEST PUSH1 0x40 MLOAD PUSH2 0x3E6 SWAP2 SWAP1 PUSH2 0x828 JUMP JUMPDEST PUSH1 0x40 MLOAD DUP1 SWAP2 SUB SWAP1 RETURN JUMPDEST PUSH2 0x3F7 PUSH2 0x6E6 JUMP JUMPDEST PUSH1 0x40 MLOAD PUSH2 0x404 SWAP2 SWAP1 PUSH2 0x828 JUMP JUMPDEST PUSH1 0x40 MLOAD DUP1 SWAP2 SUB SWAP1 RETURN JUMPDEST PUSH2 0x415 PUSH2 0x6EC JUMP JUMPDEST PUSH1 0x40 MLOAD PUSH2 0x422 SWAP2 SWAP1 PUSH2 0x828 JUMP JUMPDEST PUSH1 0x40 MLOAD DUP1 SWAP2 SUB SWAP1 RETURN JUMPDEST PUSH2 0x433 PUSH2 0x6FB JUMP JUMPDEST PUSH1 0x40 MLOAD PUSH2 0x440 SWAP2 SWAP1 PUSH2 0x828 JUMP JUMPDEST PUSH1 0x40 MLOAD DUP1 SWAP2 SUB SWAP1 RETURN JUMPDEST PUSH2 0x451 PUSH2 0x70A JUMP JUMPDEST PUSH1 0x40 MLOAD PUSH2 0x45E SWAP2 SWAP1 PUSH2 0x828 JUMP JUMPDEST PUSH1 0x40 MLOAD DUP1 SWAP2 SUB SWAP1 RETURN JUMPDEST PUSH2 0x46F PUSH2 0x719 JUMP JUMPDEST PUSH1 0x40 MLOAD PUSH2 0x47C SWAP2 SWAP1 PUSH2 0x828 JUMP JUMPDEST PUSH1 0x40 MLOAD DUP1 SWAP2 SUB SWAP1 RETURN JUMPDEST PUSH2 0x48D PUSH2 0x728 JUMP JUMPDEST PUSH1 0x40 MLOAD PUSH2 0x49A SWAP2 SWAP1 PUSH2 0x828 JUMP JUMPDEST PUSH1 0x40 MLOAD DUP1 SWAP2 SUB SWAP1 RETURN JUMPDEST PUSH2 0x4AB PUSH2 0x737 JUMP JUMPDEST PUSH1 0x40 MLOAD PUSH2 0x4B8 SWAP2 SWAP1 PUSH2 0x828 JUMP JUMPDEST PUSH1 0x40 MLOAD DUP1 SWAP2 SUB SWAP1 RETURN JUMPDEST PUSH2 0x4C9 PUSH2 0x746 JUMP JUMPDEST PUSH1 0x40 MLOAD PUSH2 0x4D6 SWAP2 SWAP1 PUSH2 0x828 JUMP JUMPDEST PUSH1 0x40 MLOAD DUP1 SWAP2 SUB SWAP1 RETURN JUMPDEST PUSH2 0x4E7 PUSH2 0x755 JUMP JUMPDEST PUSH1 0x40 MLOAD PUSH2 0x4F4 SWAP2 SWAP1 PUSH2 0x828 JUMP JUMPDEST PUSH1 0x40 MLOAD DUP1 SWAP2 SUB SWAP1 RETURN JUMPDEST PUSH2 0x505 PUSH2 0x75B JUMP JUMPDEST PUSH1 0x40 MLOAD PUSH2 0x512 SWAP2 SWAP1 PUSH2 0x828 JUMP JUMPDEST PUSH1 0x40 MLOAD DUP1 SWAP2 SUB SWAP1 RETURN JUMPDEST PUSH2 0x523 PUSH2 0x761 JUMP JUMPDEST PUSH1 0x40 MLOAD PUSH2 0x530 SWAP2 SWAP1 PUSH2 0x828 JUMP JUMPDEST PUSH1 0x40 MLOAD DUP1 SWAP2 SUB SWAP1 RETURN JUMPDEST PUSH2 0x541 PUSH2 0x770 JUMP JUMPDEST PUSH1 0x40 MLOAD PUSH2 0x54E SWAP2 SWAP1 PUSH2 0x828 JUMP JUMPDEST PUSH1 0x40 MLOAD DUP1 SWAP2 SUB SWAP1 RETURN JUMPDEST PUSH2 0x55F PUSH2 0x77F JUMP JUMPDEST PUSH1 0x40 MLOAD PUSH2 0x56C SWAP2 SWAP1 PUSH2 0x828 JUMP JUMPDEST PUSH1 0x40 MLOAD DUP1 SWAP2 SUB SWAP1 RETURN JUMPDEST PUSH11 0x300000000000000000002 DUP2 JUMP JUMPDEST PUSH2 0x807 DUP2 JUMP JUMPDEST PUSH11 0x200000000010000000002 DUP2 JUMP JUMPDEST PUSH2 0x808 DUP2 JUMP JUMPDEST PUSH2 0x802 DUP2 JUMP JUMPDEST PUSH11 0x1000000000000000000AC DUP2 JUMP JUMPDEST PUSH11 0x100000000000000000083 DUP2 JUMP JUMPDEST PUSH11 0x100000000000000000001 DUP2 JUMP JUMPDEST PUSH11 0x100000000000000000002 DUP2 JUMP JUMPDEST PUSH2 0x801 DUP2 JUMP JUMPDEST PUSH1 0x0 DUP1 PUSH1 0x0 DUP1 SLOAD SWAP1 PUSH2 0x100 EXP SWAP1 DIV PUSH20 0xFFFFFFFFFFFFFFFFFFFFFFFFFFFFFFFFFFFFFFFF AND PUSH20 0xFFFFFFFFFFFFFFFFFFFFFFFFFFFFFFFFFFFFFFFF AND PUSH4 0x41976E09 DUP5 PUSH1 0x40 MLOAD DUP3 PUSH4 0xFFFFFFFF AND PUSH1 0xE0 SHL DUP2 MSTORE PUSH1 0x4 ADD PUSH2 0x643 SWAP2 SWAP1 PUSH2 0x828 JUMP JUMPDEST PUSH1 0x20 PUSH1 0x40 MLOAD DUP1 DUP4 SUB DUP2 DUP7 DUP1 EXTCODESIZE ISZERO DUP1 ISZERO PUSH2 0x65B JUMPI PUSH1 0x0 DUP1 REVERT JUMPDEST POP GAS STATICCALL ISZERO DUP1 ISZERO PUSH2 0x66F JUMPI RETURNDATASIZE PUSH1 0x0 DUP1 RETURNDATACOPY RETURNDATASIZE PUSH1 0x0 REVERT JUMPDEST POP POP POP POP PUSH1 0x40 MLOAD RETURNDATASIZE PUSH1 0x1F NOT PUSH1 0x1F DUP3 ADD AND DUP3 ADD DUP1 PUSH1 0x40 MSTORE POP DUP2 ADD SWAP1 PUSH2 0x693 SWAP2 SWAP1 PUSH2 0x7E1 JUMP JUMPDEST SWAP1 POP DUP1 SWAP2 POP POP SWAP2 SWAP1 POP JUMP JUMPDEST PUSH2 0x805 DUP2 JUMP JUMPDEST PUSH11 0x100000000000000000004 DUP2 JUMP JUMPDEST PUSH2 0x806 DUP2 JUMP JUMPDEST PUSH11 0x100000000000000000003 DUP2 JUMP JUMPDEST PUSH11 0x1000000000000000000AA DUP2 JUMP JUMPDEST PUSH11 0x100000000000000000084 DUP2 JUMP JUMPDEST PUSH2 0x803 DUP2 JUMP JUMPDEST PUSH11 0x200000000800000000081 DUP2 JUMP JUMPDEST PUSH11 0x300000000000000000001 DUP2 JUMP JUMPDEST PUSH11 0x100000000000000000000 DUP2 JUMP JUMPDEST PUSH11 0x200000000000000000001 DUP2 JUMP JUMPDEST PUSH11 0x100000000000000000082 DUP2 JUMP JUMPDEST PUSH11 0x1000000000000000000AB DUP2 JUMP JUMPDEST PUSH11 0x100000000000000000014 DUP2 JUMP JUMPDEST PUSH2 0x800 DUP2 JUMP JUMPDEST PUSH2 0x804 DUP2 JUMP JUMPDEST PUSH11 0x1000000000000000000A8 DUP2 JUMP JUMPDEST PUSH11 0x300000000000000000000 DUP2 JUMP JUMPDEST PUSH11 0x1000000000000000000A9 DUP2 JUMP JUMPDEST PUSH1 0x0 DUP2 CALLDATALOAD SWAP1 POP PUSH2 0x79D DUP2 PUSH2 0x89A JUMP JUMPDEST SWAP3 SWAP2 POP POP JUMP JUMPDEST PUSH1 0x0 DUP2 MLOAD SWAP1 POP PUSH2 0x7B2 DUP2 PUSH2 0x8B1 JUMP JUMPDEST SWAP3 SWAP2 POP POP JUMP JUMPDEST PUSH1 0x0 PUSH1 0x20 DUP3 DUP5 SUB SLT ISZERO PUSH2 0x7CA JUMPI PUSH1 0x0 DUP1 REVERT JUMPDEST PUSH1 0x0 PUSH2 0x7D8 DUP5 DUP3 DUP6 ADD PUSH2 0x78E JUMP JUMPDEST SWAP2 POP POP SWAP3 SWAP2 POP POP JUMP JUMPDEST PUSH1 0x0 PUSH1 0x20 DUP3 DUP5 SUB SLT ISZERO PUSH2 0x7F3 JUMPI PUSH1 0x0 DUP1 REVERT JUMPDEST PUSH1 0x0 PUSH2 0x801 DUP5 DUP3 DUP6 ADD PUSH2 0x7A3 JUMP JUMPDEST SWAP2 POP POP SWAP3 SWAP2 POP POP JUMP JUMPDEST PUSH2 0x813 DUP2 PUSH2 0x85E JUMP JUMPDEST DUP3 MSTORE POP POP JUMP JUMPDEST PUSH2 0x822 DUP2 PUSH2 0x890 JUMP JUMPDEST DUP3 MSTORE POP POP JUMP JUMPDEST PUSH1 0x0 PUSH1 0x20 DUP3 ADD SWAP1 POP PUSH2 0x83D PUSH1 0x0 DUP4 ADD DUP5 PUSH2 0x80A JUMP JUMPDEST SWAP3 SWAP2 POP POP JUMP JUMPDEST PUSH1 0x0 PUSH1 0x20 DUP3 ADD SWAP1 POP PUSH2 0x858 PUSH1 0x0 DUP4 ADD DUP5 PUSH2 0x819 JUMP JUMPDEST SWAP3 SWAP2 POP POP JUMP JUMPDEST PUSH1 0x0 PUSH2 0x869 DUP3 PUSH2 0x870 JUMP JUMPDEST SWAP1 POP SWAP2 SWAP1 POP JUMP JUMPDEST PUSH1 0x0 PUSH20 0xFFFFFFFFFFFFFFFFFFFFFFFFFFFFFFFFFFFFFFFF DUP3 AND SWAP1 POP SWAP2 SWAP1 POP JUMP JUMPDEST PUSH1 0x0 DUP2 SWAP1 POP SWAP2 SWAP1 POP JUMP JUMPDEST PUSH2 0x8A3 DUP2 PUSH2 0x85E JUMP JUMPDEST DUP2 EQ PUSH2 0x8AE JUMPI PUSH1 0x0 DUP1 REVERT JUMPDEST POP JUMP JUMPDEST PUSH2 0x8BA DUP2 PUSH2 0x890 JUMP JUMPDEST DUP2 EQ PUSH2 0x8C5 JUMPI PUSH1 0x0 DUP1 REVERT JUMPDEST POP JUMP INVALID LOG2 PUSH5 0x6970667358 0x22 SLT KECCAK256 0xA8 DUP16 DUP8 0x1F 0xD3 DUP15 DUP6 0xC2 RETURNDATASIZE 0x49 0xEB SHR PUSH11 0x13BAABA2DE42EAA628427F 0xD1 PUSH5 0x4513954624 0x4B PUSH5 0x736F6C6343 STOP ADDMOD STOP STOP CALLER "
    }
  }
}