{
  "_format": "hh-sol-artifact-1",
  "contractName": "Echo",
  "sourceName": "contracts/Echo.sol",
  "abi": [
    {
      "inputs": [],
      "stateMutability": "nonpayable",
      "type": "constructor"
    },
    {
      "anonymous": false,
      "inputs": [
        {
          "indexed": false,
          "internalType": "string",
          "name": "message",
          "type": "string"
        },
        {
          "indexed": false,
          "internalType": "uint256",
          "name": "count",
          "type": "uint256"
        }
      ],
      "name": "NewEcho",
      "type": "event"
    },
    {
      "inputs": [],
      "name": "echo",
      "outputs": [
        {
          "internalType": "string",
          "name": "",
          "type": "string"
        }
      ],
      "stateMutability": "view",
      "type": "function"
    },
    {
      "inputs": [
        {
          "internalType": "string",
          "name": "message",
          "type": "string"
        }
      ],
      "name": "scream",
      "outputs": [
        {
          "internalType": "string",
          "name": "",
          "type": "string"
        }
      ],
      "stateMutability": "nonpayable",
      "type": "function"
    }
  ],
  "bytecode": "0x608060405234801561001057600080fd5b506040518060400160405280601681526020017f4465706c6f796564207375636365737366756c6c7921000000000000000000008152506000908051906020019061005c929190610062565b50610166565b82805461006e90610134565b90600052602060002090601f01602090048101928261009057600085556100d7565b82601f106100a957805160ff19168380011785556100d7565b828001600101855582156100d7579182015b828111156100d65782518255916020019190600101906100bb565b5b5090506100e491906100e8565b5090565b5b808211156101015760008160009055506001016100e9565b5090565b7f4e487b7100000000000000000000000000000000000000000000000000000000600052602260045260246000fd5b6000600282049050600182168061014c57607f821691505b602082108114156101605761015f610105565b5b50919050565b6105e1806101756000396000f3fe608060405234801561001057600080fd5b50600436106100365760003560e01c806329f4acb01461003b578063a773179714610059575b600080fd5b610043610089565b60405161005091906102c8565b60405180910390f35b610073600480360381019061006e9190610433565b610117565b60405161008091906102c8565b60405180910390f35b60008054610096906104ab565b80601f01602080910402602001604051908101604052809291908181526020018280546100c2906104ab565b801561010f5780601f106100e45761010080835404028352916020019161010f565b820191906000526020600020905b8154815290600101906020018083116100f257829003601f168201915b505050505081565b6060816000908051906020019061012f92919061018c565b5060018060008282546101429190610516565b925050819055507f8b4855b98ea931f3580ec353f7cf98d66f7424b654cfc00e50d87d6b53d9e4ee8260015460405161017c92919061057b565b60405180910390a1819050919050565b828054610198906104ab565b90600052602060002090601f0160209004810192826101ba5760008555610201565b82601f106101d357805160ff1916838001178555610201565b82800160010185558215610201579182015b828111156102005782518255916020019190600101906101e5565b5b50905061020e9190610212565b5090565b5b8082111561022b576000816000905550600101610213565b5090565b600081519050919050565b600082825260208201905092915050565b60005b8381101561026957808201518184015260208101905061024e565b83811115610278576000848401525b50505050565b6000601f19601f8301169050919050565b600061029a8261022f565b6102a4818561023a565b93506102b481856020860161024b565b6102bd8161027e565b840191505092915050565b600060208201905081810360008301526102e2818461028f565b905092915050565b6000604051905090565b600080fd5b600080fd5b600080fd5b600080fd5b7f4e487b7100000000000000000000000000000000000000000000000000000000600052604160045260246000fd5b6103408261027e565b810181811067ffffffffffffffff8211171561035f5761035e610308565b5b80604052505050565b60006103726102ea565b905061037e8282610337565b919050565b600067ffffffffffffffff82111561039e5761039d610308565b5b6103a78261027e565b9050602081019050919050565b82818337600083830152505050565b60006103d66103d184610383565b610368565b9050828152602081018484840111156103f2576103f1610303565b5b6103fd8482856103b4565b509392505050565b600082601f83011261041a576104196102fe565b5b813561042a8482602086016103c3565b91505092915050565b600060208284031215610449576104486102f4565b5b600082013567ffffffffffffffff811115610467576104666102f9565b5b61047384828501610405565b91505092915050565b7f4e487b7100000000000000000000000000000000000000000000000000000000600052602260045260246000fd5b600060028204905060018216806104c357607f821691505b602082108114156104d7576104d661047c565b5b50919050565b6000819050919050565b7f4e487b7100000000000000000000000000000000000000000000000000000000600052601160045260246000fd5b6000610521826104dd565b915061052c836104dd565b9250827fffffffffffffffffffffffffffffffffffffffffffffffffffffffffffffffff03821115610561576105606104e7565b5b828201905092915050565b610575816104dd565b82525050565b60006040820190508181036000830152610595818561028f565b90506105a4602083018461056c565b939250505056fea26469706673582212202ed0b803e76fcdd994e57c11958ec5a916a1c234ff0b6d2108104ac0afee743864736f6c63430008090033",
  "linkReferences": {},
  "deployedLinkReferences": {}
}